:10000000DFEF05F00000000000EF00F0000000004E
:0A0010000000000000000000F3D71C
:10001C000F0E0C6E470E0D6E0D2EFED70C2EFCD750
:06002C00000000001200BC
:06003200000000001200B6
:0A003800210E0D6E0D2EFED71200F2
:100042000B840BAE2CEF00F0010E036E026A016A04
:0A005200006A0A360232FF0E1200A7
:08005C000AAE029E000E120024
:100064000B820BAE3CEF00F0036802680168006885
:080074000A360232FF0E1200F1
:10007C004DBE02D0819601D081864DBC02D08194B8
:10008C0001D081844DBA02D0819201D081824DB8C9
:10009C0002D0819001D0818036B002D0818801D00D
:1000AC008198818AC0DF819A4DB602D0819601D0A9
:1000BC0081864DB402D0819401D081844DB202D09E
:1000CC00819201D081824DB002D0819001D081808B
:1000DC0036B002D0818801D08198818AA4DF819AC0
:0C00EC0036A002D095DF01D0A1DF120089
:0E00F800026A016A006A086A036A000E1200BA
:10010600086A096A000E0762036408EF01F00250EC
:1001160006180A6E075003267E0ED8A099EF00F047
:10012600035ED8B00CEF01F09DEF00F0035ED8A09F
:1001360010EF01F0028E068E02C00EF001C00BF029
:1001460000C00DF000500402F4CF0CF0015005027F
:10015600F4CF00F0F3CF08F00402F3500C26F4506D
:100166000822000E00220D500502F3500C26F45012
:100176000822000E002202500402F3500826F45012
:10018600002202500502016A000E0122F3500026E9
:10019600F45001220D500602F3500826F4500022B6
:1001A600026A000E012202220B500602F3500026BC
:1001B600F4500122000E02220E500602F3500126D0
:1001C600F450022202BEF0EF00F008360036013687
:1001D60002360306D8B410EF01F003EF01F0D88021
:1001E600800E08640030000E002201220222D8A0F0
:1001F60003EF01F0023201320032034A0CEF01F044
:100206000AAE029E000E12EF01F0010E72DF12EF2F
:1002160001F0020E24DF12EF01F0040E0FDF1200D0
:100226000A6A0350D8A40A800750D8A40A820A5042
:10023600D8B476EF01F0030AD8B42FEF01F00AB074
:100246002AEF01F006AE74EF01F072EF01F002AE94
:1002560072EF01F074EF01F00250800B0A6E029EFD
:100266000650800B069E0A18D8B440EF01F00A50DB
:10027600D8B472EF01F074EF01F00750035CD8B404
:100286004AEF01F0D8A066EF01F06CEF01F00650DE
:10029600025CD8B454EF01F0D8A066EF01F06CEF21
:1002A60001F00550015CD8B45EEF01F0D8A066EF0E
:1002B60001F06CEF01F00450005CD8B476EF01F069
:1002C600D8B06CEF01F00A52D8B474EF01F072EFB7
:1002D60001F00A52D8B472EF01F074EF01F0D88041
:0E02E6001200D8901200D880D88412001200A6
:1002F4000D6A086A0050D8B4000C04180A6E0ABECD
:100304000D1E0B6A04AE02D0041E042A00AE02D0F5
:10031400001E002A005004100A6E0ABE1FD00450AA
:10032400085E003600340836045008260036060EEF
:100334000C6E00340836045000B0085E00A0082695
:1003440000360C2EF6D700A008260BB015D00DAE43
:10035400000C001E002A081E082A000C04AE09D056
:1003640000BE04D00050086E006AF1D7006A002A6B
:10037400000C001E0B2AD3D7082A0450085CD8A40A
:0E038400E6D7086A002A00AEE2D7FF0C12008E
:0C039200369049C04DF071DE368012003C
:08039E000B6A0B86FF0E120032
:1003A6000C6A0E6A0250D8A4ECEF01F001C002F00C
:1003B60000C001F0006A0E860250D8A4ECEF01F0EE
:1003C60001C002F0016A0E960E880250D8B4FEEF04
:1003D60001F00E50035ED8A4D8A003EF02F0D89027
:1003E60002BE08EF02F0003601360236032EF3EFA6
:1003F60001F003EF02F0010E0C6E7BDE0BEF02F054
:10040600020E0C6E1BDE0BEF02F0040E0C6E23DEEA
:020416001200D2
:1004180049C004F04AC005F004C002F005C003F06A
:10042800044A052A4BC000F04CC001F04B4A4C2A44
:1004380000C0E9FF01C0EAFF02C0E1FF03C0E2FF1C
:10044800EECFE6FF02C0E9FF03C0EAFFEE5201E08B
:0C045800E3D749C000F04AC001F01200D8
:100464000900F5CFE6FF0006FBE10106F9E1120001
:1004740000C008F00150006E016A026A036A0B6A48
:100484000C6A016A026A036A960E036E0A6A00AE77
:1004940052EF02F0081E001E082AD8B4002A0A8E61
:1004A40000C001F008C000F0086A026A7ADF120096
:1004B400939A93989390939293949396819A819814
:1004C4008196819481928190A7DDA6DDA5DD81824C
:1004D4008180818AACDD819A9FDD818AA8DD819A41
:1004E4009BDD818AA4DD819A97DD8190818A9FDDDD
:1004F400819A92DD818A9BDD819A81928186818AAB
:1005040096DD819A89DD81968180818A90DD819A48
:100514008190818A8CDD819A7FDD818A88DD819A50
:100524008180818A84DD819A77DD8190818A7FDD73
:10053400819A8186818481828180818A78DD819A11
:060544006BDD36801200A1
:10054A003B6A3C6AC282C2A201D0FDD7C4CF3BF04B
:10055A00000E3C6E3BC001F0006A00C03BF001C0D7
:10056A003CF0C3500026000E012200C03BF001C03F
:04057A003CF012003F
:10057E000450000A12E10550000A0FE10650000A6D
:10058E000CE10750000A09E1FF0E006EFF0E016E2E
:10059E007F0E026EFF0E036EA4D0086A096A075022
:1005AE00D8B46AEF03F00350D8B46EEF03F00250E4
:1005BE0006180A6E028E068E0E6A02C008F001C080
:1005CE000CF000C00DF004500D5E0550D8A0053C97
:1005DE000C5E0650D8A0063C085E086A0C6A0D6ACE
:1005EE00D8A001EF03F0D890023201320032083267
:1005FE00010E0E6E0750035ED8A00EEF03F07E0EB6
:10060E000E240326D8B072EF03F014EF03F07E0E23
:10061E000E240326D8A076EF03F0180E0B6E0D36BF
:10062E000C3608360036013602360E360450005EA1
:10063E000550D8A0053C015E0650D8A0063C025ECF
:10064E0006340E120EA02FEF03F00D803AEF03F0DA
:10065E00045000260550D8B0053C01260650D8B0EF
:10066E00062802260D900B2E16EF03F060EF03F016
:10067E00D8900036013602360E360450005E055014
:10068E00D8A0053C015E0650D8A0063C025E06349A
:10069E000E10010B0D26D8B00C2AD8B4082AD8A4F7
:1006AE0060EF03F008320C320D32032AD8B472EF29
:1006BE0003F00AAE089E0850026E0C50016E0D50EB
:1006CE00006E78EF03F0010E63DE78EF03F0020E9A
:1006DE000CDD78EF03F0040EBEDC78EF03F0080EAD
:0406EE00A9DC120071
:1006F200476A486A3BC043F03CC044F03DC045F005
:100702003EC046F04650FF0A08E14550FF0A05E1A7
:100712004450FF0A02E14350FF0A0CE13FC049F096
:1007220040C04AF0150E4B6E000E4C6E74DE030E86
:10073200006EE9D1010E416E45AE0ED0800E451815
:10074200006E00C045F0412A3FC0E1FF40C0E2FF19
:100752002D0EE66E3F4A402A000E006E461808E152
:100762000050451805E10050441802E14350000AC8
:100772000BE13FC049F040C04AF0190E4B6E000E2B
:100782004C6E49DE006ABFD14650FF0A08E145506F
:10079200000A05E14450000A02E14350000A0CE15C
:1007A2003FC049F040C04AF01B0E4B6E000E4C6E2B
:1007B20032DE41C000F0A7D1000E046E000E056EBD
:1007C200000E066E7F0E076E43C000F044C001F0BB
:1007D20045C002F046C003F025DD010ED8B0000E80
:1007E200006E00521BE043C000F044C001F045C05F
:1007F20002F046C003F0000E046E000E056E200EDD
:10080200066E820E076E7EDC00C043F001C044F02B
:1008120002C045F003C046F04806CED7000E046E73
:10082200000E056E200E066E820E076E43C000F0AB
:1008320044C001F045C002F046C003F0F3DC000EF4
:10084200D8B0010E006E00521BE043C000F044C05D
:1008520001F045C002F046C003F0CD0E046ECC0E8E
:10086200056E4C0E066E7B0E076E4CDC00C043F02C
:1008720001C044F002C045F003C046F0482ACED77A
:10088200FF0E4314086EFF0E4414096E7F0E4514CA
:100892000A6E000E46140B6E08C004F009C005F083
:1008A2000AC006F00BC007F004360490053606367F
:1008B2000736000E4314006E000E4414016E000E43
:1008C2004514026EFF0E4614036E00C043F001C0D1
:1008D20044F002C045F003C046F004504310006EDD
:1008E20005504410016E06504510026E0750461026
:1008F200036E00C043F001C044F002C045F003C0E3
:1009020046F07F0E465C006E00C042F0010E466E5D
:1009120000C004F043C000F044C001F045C002F042
:1009220046C003F0045007E000360090013602365C
:100932000336FF0FF8D700C043F001C044F002C0F5
:1009420045F003C046F03FC0E1FF40C0E2FF465021
:10095200300FE66E3F4A402A800E4818006E800E25
:10096200010A005C08E3800E060A006E800E481839
:10097200005C01E30AD03FC0E1FF40C0E2FF2E0E5F
:10098200E66E3F4A402A010E476E060E426E425004
:10099200000A54E0466A43C000F044C001F045C07A
:1009A20002F046C003F000360090013602360336EC
:1009B200003600900136023603364350002644507A
:1009C2000122455002224650032200C043F001C0DA
:1009D20044F002C045F003C046F043C000F044C0FA
:1009E20001F045C002F046C003F000360090013627
:1009F2000236033600C043F001C044F002C045F0A5
:100A020003C046F03FC0E1FF40C0E2FF4650300F56
:100A1200E66E3F4A402A4750000A0EE14806485017
:100A2200000A0AE13FC0E1FF40C0E2FF2E0EE66E7F
:100A32003F4A402A010E476E4206A9D7FF0E3F24C5
:100A4200E96EFF0E4020EA6EEE50300A05E1010E1B
:100A52003F5E000E405AF2D7FF0E3F24E96EFF0EB2
:100A62004020EA6EEE502E0A04E1010E3F5E000EB7
:100A7200405A4850000A41E03FC0E1FF40C0E2FF57
:100A8200650EE66E3F4A402A800E4818006E800EC0
:100A9200000A005C0BE23FC0E1FF40C0E2FF2D0E06
:100AA200E66E3F4A402A48500008486E48C042F06D
:100AB200800E090A006E800E4818005C0EE20A0ED3
:100AC200046E42C000F015DC3FC0E1FF40C0E2FF0F
:100AD2000050300FE66E3F4A402A0A0E046E42C0B2
:100AE20000F007DC08C000F03FC0E1FF40C0E2FFB9
:100AF2000050300FE66E3F4A402A3FC0E1FF40C03F
:080B0200E2FFE66A006A12003E
:100B0A000FD0800E3B6E19D0C00E3B6E16D0940EDD
:100B1A003B6E13D0D40E3B6E10D0800E3B6E0DD0C0
:100B2A003B50010AEEE03B50020AEEE03B50030A5A
:100B3A00EEE03B50040AEEE0F0D73C04006E3B5076
:100B4A00002600C03BF000C04DF03EEC00F03690AD
:100B5A003F6A3F503D24E96E000E3E20EA6EEE5297
:100B6A000BE03F503D24E96E000E3E20EA6EEECFC8
:0C0B7A0049F00ADC3F2AEDD7368012005B
:100B86003BC002F03CC003F002C000F003C001F01D
:100B9600024A032A00C0E9FF01C0EAFFEE5201E063
:100BA600F3D73B50025C006E3C500358016E010EB9
:080BB600005E000E015A12005E
:100BBE0046EC07F00B0EC16E9B0EC06E74DC010E80
:100BCE004D6E3EEC00F00C0E4D6E3EEC00F0010E44
:100BDE00C26EC198050E336EB1DC00C034F001C098
:100BEE0035F041DC00C037F001C038F002C039F0FA
:100BFE0003C03AF033C000F0000E016E34DC37C093
:100C0E0004F038C005F039C006F03AC007F083ECA6
:100C1E0000F0000E046EC00E056E7F0E066E880E7E
:100C2E00076EA6DC00C02FF001C030F002C031F01C
:100C3E0003C032F0010E4D6E3EEC00F02FC03BF0C3
:100C4E0030C03CF031C03DF032C03EF01F0E3F6E62
:100C5E00000E406E47DD1F0E3B6E000E3C6E8CDFAD
:100C6E00800E026E800E0118025C02E10050080830
:100C7E0021E21F0E3B6E000E3C6E7EDF010E005E0B
:100C8E00000E015A1F0E0024E96E000E0120EA6EBE
:100C9E00EE50310A09E121C02EF01FC021F0300EB6
:100CAE001F6E2EC022F006D01FC022F0300E1F6E17
:100CBE00300E216E1F0E3B6E000E3C6E5DDF000E81
:100CCE00011802E1010E001806E12E0E206E300E04
:100CDE00216E300E226E560E236E246A010E3B6E6E
:100CEE00010E3C6E1F0E3D6E000E3E6E07DF050EB2
:100CFE00C26EC188010E336E21DC00C034F001C01B
:100D0E0035F03AEC02F000C037F001C038F002C006
:100D1E0039F003C03AF033C000F0000E016E3AEC29
:100D2E0002F037C004F038C005F039C006F03AC002
:100D3E0007F083EC00F0000E046EC00E056E7F0E01
:100D4E00066E880E076E14DC00C02FF001C030F066
:100D5E0002C031F003C032F0000E046E000E056EBC
:100D6E00480E066E850E076E83EC00F000C02FF065
:100D7E0001C030F002C031F003C032F000C03BF0D1
:100D8E0001C03CF002C03DF003C03EF01F0E3F6EAE
:100D9E00000E406EA7DC1F0E3B6E000E3C6EECDEAE
:100DAE00800E026E800E0118025C02E100500808EF
:100DBE0021E21F0E3B6E000E3C6EDEDE010E005E6B
:100DCE00000E015A1F0E0024E96E000E0120EA6E7D
:100DDE00EE50310A09E121C02EF01FC021F0300E75
:100DEE001F6E2EC022F006D01FC022F0300E1F6ED6
:100DFE00300E216E1F0E3B6E000E3C6EBDDE000EE1
:100E0E00011802E1010E001806E12E0E206E300EC2
:100E1E00216E300E226E1F0E3B6E000E3C6EACDE4F
:100E2E00000E011802E1030E001806E1BA0E226E42
:100E3E00430E236E246A05D0BA0E236E430E246E23
:100E4E00256A020E3B6E010E3C6E1F0E3D6E000EAD
:100E5E003E6E54DE040E0B6E0C0E0C6E330E0D6ECB
:100E6E000D2EFED70C2EFCD70B2EFAD7000000004D
:040E7E00AED6FFD716
:100E8C0010EE15F00A0E006E010E016E820EF66E5B
:0E0E9C000E0EF76E000EF86E32EC02F0120031
:040E82004E614E006F
:020E860030003A
:040E8800494E460089
:020000040030CA
:0E000000000C1F1EFF8381FF0FC00FE00F409A
:00000001FF
