:10000000DDEF05F00000000000EF00F00000000050
:0A0010000000000000000000F3D71C
:10001C000F0E0C6E470E0D6E0D2EFED70C2EFCD750
:06002C00000000001200BC
:06003200000000001200B6
:0A003800210E0D6E0D2EFED71200F2
:100042000B840BAE2CEF00F0010E036E026A016A04
:0A005200006A0A360232FF0E1200A7
:08005C000AAE029E000E120024
:100064000B820BAE3CEF00F0036802680168006885
:080074000A360232FF0E1200F1
:10007C004FBE02D0819601D081864FBC02D08194B4
:10008C0001D081844FBA02D0819201D081824FB8C5
:10009C0002D0819001D0818037B002D0818801D00C
:1000AC008198818AC0DF819A4FB602D0819601D0A7
:1000BC0081864FB402D0819401D081844FB202D09A
:1000CC00819201D081824FB002D0819001D0818089
:1000DC0037B002D0818801D08198818AA4DF819ABF
:0C00EC0037A002D095DF01D0A1DF120088
:0E00F800026A016A006A086A036A000E1200BA
:10010600086A096A000E0762036408EF01F00250EC
:1001160006180A6E075003267E0ED8A099EF00F047
:10012600035ED8B00CEF01F09DEF00F0035ED8A09F
:1001360010EF01F0028E068E02C00EF001C00BF029
:1001460000C00DF000500402F4CF0CF0015005027F
:10015600F4CF00F0F3CF08F00402F3500C26F4506D
:100166000822000E00220D500502F3500C26F45012
:100176000822000E002202500402F3500826F45012
:10018600002202500502016A000E0122F3500026E9
:10019600F45001220D500602F3500826F4500022B6
:1001A600026A000E012202220B500602F3500026BC
:1001B600F4500122000E02220E500602F3500126D0
:1001C600F450022202BEF0EF00F008360036013687
:1001D60002360306D8B410EF01F003EF01F0D88021
:1001E600800E08640030000E002201220222D8A0F0
:1001F60003EF01F0023201320032034A0CEF01F044
:100206000AAE029E000E12EF01F0010E72DF12EF2F
:1002160001F0020E24DF12EF01F0040E0FDF1200D0
:100226000A6A0350D8A40A800750D8A40A820A5042
:10023600D8B476EF01F0030AD8B42FEF01F00AB074
:100246002AEF01F006AE74EF01F072EF01F002AE94
:1002560072EF01F074EF01F00250800B0A6E029EFD
:100266000650800B069E0A18D8B440EF01F00A50DB
:10027600D8B472EF01F074EF01F00750035CD8B404
:100286004AEF01F0D8A066EF01F06CEF01F00650DE
:10029600025CD8B454EF01F0D8A066EF01F06CEF21
:1002A60001F00550015CD8B45EEF01F0D8A066EF0E
:1002B60001F06CEF01F00450005CD8B476EF01F069
:1002C600D8B06CEF01F00A52D8B474EF01F072EFB7
:1002D60001F00A52D8B472EF01F074EF01F0D88041
:0E02E6001200D8901200D880D88412001200A6
:1002F4000D6A086A0050D8B4000C04180A6E0ABECD
:100304000D1E0B6A04AE02D0041E042A00AE02D0F5
:10031400001E002A005004100A6E0ABE1FD00450AA
:10032400085E003600340836045008260036060EEF
:100334000C6E00340836045000B0085E00A0082695
:1003440000360C2EF6D700A008260BB015D00DAE43
:10035400000C001E002A081E082A000C04AE09D056
:1003640000BE04D00050086E006AF1D7006A002A6B
:10037400000C001E0B2AD3D7082A0450085CD8A40A
:0E038400E6D7086A002A00AEE2D7FF0C12008E
:0C03920037904BC04FF071DE3780120036
:08039E000B6A0B86FF0E120032
:1003A6000C6A0E6A0250D8A4ECEF01F001C002F00C
:1003B60000C001F0006A0E860250D8A4ECEF01F0EE
:1003C60001C002F0016A0E960E880250D8B4FEEF04
:1003D60001F00E50035ED8A4D8A003EF02F0D89027
:1003E60002BE08EF02F0003601360236032EF3EFA6
:1003F60001F003EF02F0010E0C6E7BDE0BEF02F054
:10040600020E0C6E1BDE0BEF02F0040E0C6E23DEEA
:020416001200D2
:100418004BC004F04CC005F004C002F005C003F066
:10042800044A052A4DC000F04EC001F04D4A4E2A3C
:1004380000C0E9FF01C0EAFF02C0E1FF03C0E2FF1C
:10044800EECFE6FF02C0E9FF03C0EAFFEE5201E08B
:0C045800E3D74BC000F04CC001F01200D4
:100464000900F5CFE6FF0006FBE10106F9E1120001
:1004740000C008F00150006E016A026A036A0B6A48
:100484000C6A016A026A036A960E036E0A6A00AE77
:1004940052EF02F0081E001E082AD8B4002A0A8E61
:1004A40000C001F008C000F0086A026A7ADF120096
:1004B400939A93989390939293949396819A819814
:1004C4008196819481928190A7DDA6DDA5DD81824C
:1004D4008180818AACDD819A9FDD818AA8DD819A41
:1004E4009BDD818AA4DD819A97DD8190818A9FDDDD
:1004F400819A92DD818A9BDD819A81928186818AAB
:1005040096DD819A89DD81968180818A90DD819A48
:100514008190818A8CDD819A7FDD818A88DD819A50
:100524008180818A84DD819A77DD8190818A7FDD73
:10053400819A8186818481828180818A78DD819A11
:060544006BDD37801200A0
:10054A00C282C2A201D0FDD7C4CF03F0000E046E4E
:10055A0003C001F0006A00C003F001C004F0C350F8
:10056A000026000E012200C003F001C004F01200B0
:10057A000450000A12E10550000A0FE10650000A71
:10058A000CE10750000A09E1FF0E006EFF0E016E32
:10059A007F0E026EFF0E036EA4D0086A096A075026
:1005AA00D8B468EF03F00350D8B46CEF03F00250EC
:1005BA0006180A6E028E068E0E6A02C008F001C084
:1005CA000CF000C00DF004500D5E0550D8A0053C9B
:1005DA000C5E0650D8A0063C085E086A0C6A0D6AD2
:1005EA00D8A0FFEF02F0D89002320132003208326E
:1005FA00010E0E6E0750035ED8A00CEF03F07E0EBC
:10060A000E240326D8B070EF03F012EF03F07E0E2B
:10061A000E240326D8A074EF03F0180E0B6E0D36C5
:10062A000C3608360036013602360E360450005EA5
:10063A000550D8A0053C015E0650D8A0063C025ED3
:10064A0006340E120EA02DEF03F00D8038EF03F0E2
:10065A00045000260550D8B0053C01260650D8B0F3
:10066A00062802260D900B2E14EF03F05EEF03F01E
:10067A00D8900036013602360E360450005E055018
:10068A00D8A0053C015E0650D8A0063C025E06349E
:10069A000E10010B0D26D8B00C2AD8B4082AD8A4FB
:1006AA005EEF03F008320C320D32032AD8B470EF31
:1006BA0003F00AAE089E0850026E0C50016E0D50EF
:1006CA00006E76EF03F0010E65DE76EF03F0020EA0
:1006DA000EDD76EF03F0040EC0DC76EF03F0080EB1
:0406EA00ABDC120073
:1006EE00496A4A6A3DC045F03EC046F03FC047F0F9
:1006FE0040C048F04850FF0A08E14750FF0A05E1A4
:10070E004650FF0A02E14550FF0A0CE141C04BF092
:10071E0042C04CF0150E4D6E000E4E6E76DE030E80
:10072E00006EE9D1010E436E47AE0ED0800E471813
:10073E00006E00C047F0432A41C0E1FF42C0E2FF15
:10074E002D0EE66E414A422A000E006E481808E150
:10075E000050471805E10050461802E14550000AC6
:10076E000BE141C04BF042C04CF01D0E4D6E000E21
:10077E004E6E4BDE006ABFD14850FF0A08E147506B
:10078E00000A05E14650000A02E14550000A0CE15C
:10079E0041C04BF042C04CF0190E4D6E000E4E6E25
:1007AE0034DE43C000F0A7D1000E046E000E056EBD
:1007BE00000E066E7F0E076E45C000F046C001F0BB
:1007CE0047C002F048C003F027DD010ED8B0000E7E
:1007DE00006E00521BE045C000F046C001F047C05D
:1007EE0002F048C003F0000E046E000E056E200EDF
:1007FE00066E820E076E80DC00C045F001C046F02A
:10080E0002C047F003C048F04A06CED7000E046E71
:10081E00000E056E200E066E820E076E45C000F0AD
:10082E0046C001F047C002F048C003F0F5DC000EF0
:10083E00D8B0010E006E00521BE045C000F046C05D
:10084E0001F047C002F048C003F0CD0E046ECC0E8E
:10085E00056E4C0E066E7B0E076E4EDC00C045F02C
:10086E0001C046F002C047F003C048F04A2ACED776
:10087E00FF0E4514086EFF0E4614096E7F0E4714C8
:10088E000A6E000E48140B6E08C004F009C005F085
:10089E000AC006F00BC007F0043604900536063683
:1008AE000736000E4514006E000E4614016E000E43
:1008BE004714026EFF0E4814036E00C045F001C0CF
:1008CE0046F002C047F003C048F004504510006ED9
:1008DE0005504610016E06504710026E0750481024
:1008EE00036E00C045F001C046F002C047F003C0E1
:1008FE0048F07F0E485C006E00C044F0010E486E5A
:10090E0000C004F045C000F046C001F047C002F040
:10091E0048C003F0045007E000360090013602365E
:10092E000336FF0FF8D700C045F001C046F002C0F5
:10093E0047F003C048F041C0E1FF42C0E2FF48501B
:10094E00300FE66E414A422A800E4A18006E800E23
:10095E00010A005C08E3800E060A006E800E4A183B
:10096E00005C01E30AD041C0E1FF42C0E2FF2E0E5F
:10097E00E66E414A422A010E496E060E446E4450FE
:10098E00000A54E0486A45C000F046C001F047C076
:10099E0002F048C003F000360090013602360336EE
:1009AE00003600900136023603364550002646507A
:1009BE000122475002224850032200C045F001C0D8
:1009CE0046F002C047F003C048F045C000F046C0F4
:1009DE0001F047C002F048C003F000360090013627
:1009EE000236033600C045F001C046F002C047F0A3
:1009FE0003C048F041C0E1FF42C0E2FF4850300F53
:100A0E00E66E414A422A4950000A0EE14A064A5011
:100A1E00000A0AE141C0E1FF42C0E2FF2E0EE66E7F
:100A2E00414A422A010E496E4406A9D7FF0E4124BF
:100A3E00E96EFF0E4220EA6EEE50300A05E1010E1D
:100A4E00415E000E425AF2D7FF0E4124E96EFF0EB0
:100A5E004220EA6EEE502E0A04E1010E415E000EB7
:100A6E00425A4A50000A41E041C0E1FF42C0E2FF53
:100A7E00650EE66E414A422A800E4A18006E800EBE
:100A8E00000A005C0BE241C0E1FF42C0E2FF2D0E06
:100A9E00E66E414A422A4A5000084A6E4AC044F065
:100AAE00800E090A006E800E4A18005C0EE20A0ED5
:100ABE00046E44C000F017DC41C0E1FF42C0E2FF0B
:100ACE000050300FE66E414A422A0A0E046E44C0B0
:100ADE0000F009DC08C000F041C0E1FF42C0E2FFB7
:100AEE000050300FE66E414A422A41C0E1FF42C03B
:080AFE00E2FFE66A006A120043
:100B06000FD0800E3D6E19D0C00E3D6E16D0940EDD
:100B16003D6E13D0D40E3D6E10D0800E3D6E0DD0BE
:100B26003D50010AEEE03D50020AEEE03D50030A58
:100B3600EEE03D50040AEEE0F0D73E04006E3D5074
:100B4600002600C03DF000C04FF03EEC00F03790AC
:100B5600416A41503F24E96E000E4020EA6EEE5293
:100B66000BE041503F24E96E000E4020EA6EEECFC6
:0C0B76004BF00CDC412AEDD73780120058
:100B82003DC002F03EC003F002C000F003C001F01D
:100B9200024A032A00C0E9FF01C0EAFFEE5201E067
:100BA200F3D73D50025C006E3E500358016E010EB9
:080BB200005E000E015A120062
:100BBA00B3EC06F0010EC26E0B0EC16E9B0EC06E38
:100BCA00928AFF0E346E030E356E6FDC010E4F6E85
:100BDA003EEC00F00C0E4F6E3EEC00F080AA04D002
:100BEA00C188010E366E03D0C198050E366EA8DC98
:100BFA0000C032F001C033F038DC00C039F001C067
:100C0A003AF002C03BF003C03CF036C000F0000EE0
:100C1A00016E2BDC39C004F03AC005F03BC006F087
:100C2A003CC007F083EC00F000C039F001C03AF094
:100C3A0002C03BF003C03CF034C000F035C001F004
:100C4A0014DC00C004F001C005F002C006F003C0C5
:100C5A0007F039C000F03AC001F03BC002F03CC0D6
:100C6A0003F086DC00C01FF001C020F002C021F0B2
:100C7A0003C022F000C03DF001C03EF002C03FF0C8
:100C8A0003C040F0230E416E000E426E2BDD230E90
:100C9A003D6E000E3E6E70DF800E026E800E0118F1
:100CAA00025C02E10050080821E2230E3D6E000EAC
:100CBA003E6E62DF010E005E000E015A230E002412
:100CCA00E96E000E0120EA6EEE50310A09E125C0F4
:100CDA0038F023C025F0300E236E38C026F006D037
:100CEA0023C026F0300E236E300E256E230E3D6E85
:100CFA00000E3E6E41DF000E011802E1010E0018DF
:100D0A0006E12E0E246E300E256E300E266EBA0EB9
:100D1A00276E430E286E296A010E4F6E3EEC00F0D4
:100D2A00010E3D6E010E3E6E230E3F6E000E406EAA
:100D3A00E5DE060E0B6E130E0C6EAD0E0D6E0D2E4D
:100D4A00FED70C2EFCD70B2EFAD70000000046D790
:020D5A00FFD7C1
:100D660010EE15F00A0E006E010E016E5C0EF66EA8
:0E0D76000D0EF76E000EF86E32EC02F0120059
:040D5C004E614E0096
:040D6000494E4600B2
:020D640030005D
:020000040030CA
:0E000000000C1F1EFF8381FF0FC00FE00F409A
:00000001FF
